{
  "contractName": "ePrescription",
  "abi": [
    {
      "anonymous": false,
      "inputs": [
        {
          "indexed": false,
          "internalType": "string",
          "name": "serialNo",
          "type": "string"
        },
        {
          "indexed": false,
          "internalType": "string",
          "name": "farmerID",
          "type": "string"
        },
        {
          "indexed": false,
          "internalType": "string",
          "name": "vetID",
          "type": "string"
        },
        {
          "indexed": false,
          "internalType": "string",
          "name": "presHash",
          "type": "string"
        },
        {
          "indexed": false,
          "internalType": "uint256",
          "name": "timestamp",
          "type": "uint256"
        }
      ],
      "name": "eventCreatePrescription",
      "type": "event"
    },
    {
      "anonymous": false,
      "inputs": [
        {
          "indexed": false,
          "internalType": "string",
          "name": "farmerID",
          "type": "string"
        },
        {
          "indexed": false,
          "internalType": "string",
          "name": "hash",
          "type": "string"
        },
        {
          "indexed": false,
          "internalType": "uint256",
          "name": "timestamp",
          "type": "uint256"
        }
      ],
      "name": "eventCreateTrustW",
      "type": "event"
    },
    {
      "anonymous": false,
      "inputs": [
        {
          "indexed": false,
          "internalType": "string",
          "name": "vetID",
          "type": "string"
        },
        {
          "indexed": false,
          "internalType": "string",
          "name": "vetDetailsHash",
          "type": "string"
        },
        {
          "indexed": false,
          "internalType": "uint256",
          "name": "timestamp",
          "type": "uint256"
        }
      ],
      "name": "eventRegisterVet",
      "type": "event"
    },
    {
      "constant": true,
      "inputs": [
        {
          "internalType": "string",
          "name": "",
          "type": "string"
        }
      ],
      "name": "presDetails",
      "outputs": [
        {
          "internalType": "string",
          "name": "",
          "type": "string"
        }
      ],
      "payable": false,
      "stateMutability": "view",
      "type": "function"
    },
    {
      "constant": true,
      "inputs": [
        {
          "internalType": "string",
          "name": "",
          "type": "string"
        }
      ],
      "name": "trustW",
      "outputs": [
        {
          "internalType": "string",
          "name": "",
          "type": "string"
        }
      ],
      "payable": false,
      "stateMutability": "view",
      "type": "function"
    },
    {
      "constant": true,
      "inputs": [
        {
          "internalType": "string",
          "name": "",
          "type": "string"
        }
      ],
      "name": "vets",
      "outputs": [
        {
          "internalType": "string",
          "name": "",
          "type": "string"
        }
      ],
      "payable": false,
      "stateMutability": "view",
      "type": "function"
    },
    {
      "constant": false,
      "inputs": [
        {
          "internalType": "string",
          "name": "farmerID",
          "type": "string"
        },
        {
          "internalType": "string",
          "name": "hash",
          "type": "string"
        }
      ],
      "name": "addingTrustW",
      "outputs": [],
      "payable": false,
      "stateMutability": "nonpayable",
      "type": "function"
    },
    {
      "constant": false,
      "inputs": [
        {
          "internalType": "string",
          "name": "_vetID",
          "type": "string"
        },
        {
          "internalType": "string",
          "name": "_vetHash",
          "type": "string"
        }
      ],
      "name": "addRegisteredVet",
      "outputs": [],
      "payable": false,
      "stateMutability": "nonpayable",
      "type": "function"
    },
    {
      "constant": true,
      "inputs": [
        {
          "internalType": "string",
          "name": "_vid",
          "type": "string"
        }
      ],
      "name": "getRegisteredVet",
      "outputs": [
        {
          "internalType": "string",
          "name": "",
          "type": "string"
        }
      ],
      "payable": false,
      "stateMutability": "view",
      "type": "function"
    },
    {
      "constant": false,
      "inputs": [
        {
          "internalType": "string",
          "name": "_serialNo",
          "type": "string"
        },
        {
          "internalType": "string",
          "name": "_farmerID",
          "type": "string"
        },
        {
          "internalType": "string",
          "name": "_vetID",
          "type": "string"
        },
        {
          "internalType": "string",
          "name": "_presHash",
          "type": "string"
        }
      ],
      "name": "addPrescription",
      "outputs": [],
      "payable": false,
      "stateMutability": "nonpayable",
      "type": "function"
    },
    {
      "constant": true,
      "inputs": [
        {
          "internalType": "string",
          "name": "_serialNo",
          "type": "string"
        }
      ],
      "name": "getPrescription",
      "outputs": [
        {
          "internalType": "string",
          "name": "",
          "type": "string"
        }
      ],
      "payable": false,
      "stateMutability": "view",
      "type": "function"
    }
  ],
  "bytecode": "0x608060405234801561001057600080fd5b5061168c806100206000396000f3fe608060405234801561001057600080fd5b50600436106100885760003560e01c80637efda6e41161005b5780637efda6e4146106c7578063dd0603e2146107fb578063ebca70ad1461094d578063ed43fa1014610a8157610088565b80630581ee821461008d57806318d431021461030d5780632b21e8081461045f57806331d70b8f14610593575b600080fd5b61030b600480360360808110156100a357600080fd5b81019080803590602001906401000000008111156100c057600080fd5b8201836020820111156100d257600080fd5b803590602001918460018302840111640100000000831117156100f457600080fd5b91908080601f016020809104026020016040519081016040528093929190818152602001838380828437600081840152601f19601f8201169050808301925050505050505091929192908035906020019064010000000081111561015757600080fd5b82018360208201111561016957600080fd5b8035906020019184600183028401116401000000008311171561018b57600080fd5b91908080601f016020809104026020016040519081016040528093929190818152602001838380828437600081840152601f19601f820116905080830192505050505050509192919290803590602001906401000000008111156101ee57600080fd5b82018360208201111561020057600080fd5b8035906020019184600183028401116401000000008311171561022257600080fd5b91908080601f016020809104026020016040519081016040528093929190818152602001838380828437600081840152601f19601f8201169050808301925050505050505091929192908035906020019064010000000081111561028557600080fd5b82018360208201111561029757600080fd5b803590602001918460018302840111640100000000831117156102b957600080fd5b91908080601f016020809104026020016040519081016040528093929190818152602001838380828437600081840152601f19601f820116905080830192505050505050509192919290505050610bb5565b005b61045d6004803603604081101561032357600080fd5b810190808035906020019064010000000081111561034057600080fd5b82018360208201111561035257600080fd5b8035906020019184600183028401116401000000008311171561037457600080fd5b91908080601f016020809104026020016040519081016040528093929190818152602001838380828437600081840152601f19601f820116905080830192505050505050509192919290803590602001906401000000008111156103d757600080fd5b8201836020820111156103e957600080fd5b8035906020019184600183028401116401000000008311171561040b57600080fd5b91908080601f016020809104026020016040519081016040528093929190818152602001838380828437600081840152601f19601f820116905080830192505050505050509192919290505050610e24565b005b6105186004803603602081101561047557600080fd5b810190808035906020019064010000000081111561049257600080fd5b8201836020820111156104a457600080fd5b803590602001918460018302840111640100000000831117156104c657600080fd5b91908080601f016020809104026020016040519081016040528093929190818152602001838380828437600081840152601f19601f820116905080830192505050505050509192919290505050610fb7565b6040518080602001828103825283818151815260200191508051906020019080838360005b8381101561055857808201518184015260208101905061053d565b50505050905090810190601f1680156105855780820380516001836020036101000a031916815260200191505b509250505060405180910390f35b61064c600480360360208110156105a957600080fd5b81019080803590602001906401000000008111156105c657600080fd5b8201836020820111156105d857600080fd5b803590602001918460018302840111640100000000831117156105fa57600080fd5b91908080601f016020809104026020016040519081016040528093929190818152602001838380828437600081840152601f19601f8201169050808301925050505050505091929192905050506110c2565b6040518080602001828103825283818151815260200191508051906020019080838360005b8381101561068c578082015181840152602081019050610671565b50505050905090810190601f1680156106b95780820380516001836020036101000a031916815260200191505b509250505060405180910390f35b610780600480360360208110156106dd57600080fd5b81019080803590602001906401000000008111156106fa57600080fd5b82018360208201111561070c57600080fd5b8035906020019184600183028401116401000000008311171561072e57600080fd5b91908080601f016020809104026020016040519081016040528093929190818152602001838380828437600081840152601f19601f820116905080830192505050505050509192919290505050611188565b6040518080602001828103825283818151815260200191508051906020019080838360005b838110156107c05780820151818401526020810190506107a5565b50505050905090810190601f1680156107ed5780820380516001836020036101000a031916815260200191505b509250505060405180910390f35b61094b6004803603604081101561081157600080fd5b810190808035906020019064010000000081111561082e57600080fd5b82018360208201111561084057600080fd5b8035906020019184600183028401116401000000008311171561086257600080fd5b91908080601f016020809104026020016040519081016040528093929190818152602001838380828437600081840152601f19601f820116905080830192505050505050509192919290803590602001906401000000008111156108c557600080fd5b8201836020820111156108d757600080fd5b803590602001918460018302840111640100000000831117156108f957600080fd5b91908080601f016020809104026020016040519081016040528093929190818152602001838380828437600081840152601f19601f820116905080830192505050505050509192919290505050611293565b005b610a066004803603602081101561096357600080fd5b810190808035906020019064010000000081111561098057600080fd5b82018360208201111561099257600080fd5b803590602001918460018302840111640100000000831117156109b457600080fd5b91908080601f016020809104026020016040519081016040528093929190818152602001838380828437600081840152601f19601f820116905080830192505050505050509192919290505050611426565b6040518080602001828103825283818151815260200191508051906020019080838360005b83811015610a46578082015181840152602081019050610a2b565b50505050905090810190601f168015610a735780820380516001836020036101000a031916815260200191505b509250505060405180910390f35b610b3a60048036036020811015610a9757600080fd5b8101908080359060200190640100000000811115610ab457600080fd5b820183602082011115610ac657600080fd5b80359060200191846001830284011164010000000083111715610ae857600080fd5b91908080601f016020809104026020016040519081016040528093929190818152602001838380828437600081840152601f19601f8201169050808301925050505050505091929192905050506114ec565b6040518080602001828103825283818151815260200191508051906020019080838360005b83811015610b7a578082015181840152602081019050610b5f565b50505050905090810190601f168015610ba75780820380516001836020036101000a031916815260200191505b509250505060405180910390f35b806002856040518082805190602001908083835b60208310610bec5780518252602082019150602081019050602083039250610bc9565b6001836020036101000a03801982511681845116808217855250505050505090500191505090815260200160405180910390209080519060200190610c329291906115b2565b507fa9e87112339f7397fdda887db3050949509aed226718fca14eeaa30b0c8d871b8484848442604051808060200180602001806020018060200186815260200185810385528a818151815260200191508051906020019080838360005b83811015610cab578082015181840152602081019050610c90565b50505050905090810190601f168015610cd85780820380516001836020036101000a031916815260200191505b50858103845289818151815260200191508051906020019080838360005b83811015610d11578082015181840152602081019050610cf6565b50505050905090810190601f168015610d3e5780820380516001836020036101000a031916815260200191505b50858103835288818151815260200191508051906020019080838360005b83811015610d77578082015181840152602081019050610d5c565b50505050905090810190601f168015610da45780820380516001836020036101000a031916815260200191505b50858103825287818151815260200191508051906020019080838360005b83811015610ddd578082015181840152602081019050610dc2565b50505050905090810190601f168015610e0a5780820380516001836020036101000a031916815260200191505b50995050505050505050505060405180910390a150505050565b806001836040518082805190602001908083835b60208310610e5b5780518252602082019150602081019050602083039250610e38565b6001836020036101000a03801982511681845116808217855250505050505090500191505090815260200160405180910390209080519060200190610ea19291906115b2565b507f60bb6ad51fa28ab5155542452f7d492da8826c8e6f02d287b57e604ae7f48311828242604051808060200180602001848152602001838103835286818151815260200191508051906020019080838360005b83811015610f10578082015181840152602081019050610ef5565b50505050905090810190601f168015610f3d5780820380516001836020036101000a031916815260200191505b50838103825285818151815260200191508051906020019080838360005b83811015610f76578082015181840152602081019050610f5b565b50505050905090810190601f168015610fa35780820380516001836020036101000a031916815260200191505b509550505050505060405180910390a15050565b60606002826040518082805190602001908083835b60208310610fef5780518252602082019150602081019050602083039250610fcc565b6001836020036101000a03801982511681845116808217855250505050505090500191505090815260200160405180910390208054600181600116156101000203166002900480601f0160208091040260200160405190810160405280929190818152602001828054600181600116156101000203166002900480156110b65780601f1061108b576101008083540402835291602001916110b6565b820191906000526020600020905b81548152906001019060200180831161109957829003601f168201915b50505050509050919050565b6001818051602081018201805184825260208301602085012081835280955050505050506000915090508054600181600116156101000203166002900480601f0160208091040260200160405190810160405280929190818152602001828054600181600116156101000203166002900480156111805780601f1061115557610100808354040283529160200191611180565b820191906000526020600020905b81548152906001019060200180831161116357829003601f168201915b505050505081565b60606000826040518082805190602001908083835b602083106111c0578051825260208201915060208101905060208303925061119d565b6001836020036101000a03801982511681845116808217855250505050505090500191505090815260200160405180910390208054600181600116156101000203166002900480601f0160208091040260200160405190810160405280929190818152602001828054600181600116156101000203166002900480156112875780601f1061125c57610100808354040283529160200191611287565b820191906000526020600020905b81548152906001019060200180831161126a57829003601f168201915b50505050509050919050565b806000836040518082805190602001908083835b602083106112ca57805182526020820191506020810190506020830392506112a7565b6001836020036101000a038019825116818451168082178552505050505050905001915050908152602001604051809103902090805190602001906113109291906115b2565b507fbfe209d324d55f2f4d5a69444b76b50fac2956463aeb865d160eeeccdbc99d4b828242604051808060200180602001848152602001838103835286818151815260200191508051906020019080838360005b8381101561137f578082015181840152602081019050611364565b50505050905090810190601f1680156113ac5780820380516001836020036101000a031916815260200191505b50838103825285818151815260200191508051906020019080838360005b838110156113e55780820151818401526020810190506113ca565b50505050905090810190601f1680156114125780820380516001836020036101000a031916815260200191505b509550505050505060405180910390a15050565b6000818051602081018201805184825260208301602085012081835280955050505050506000915090508054600181600116156101000203166002900480601f0160208091040260200160405190810160405280929190818152602001828054600181600116156101000203166002900480156114e45780601f106114b9576101008083540402835291602001916114e4565b820191906000526020600020905b8154815290600101906020018083116114c757829003601f168201915b505050505081565b6002818051602081018201805184825260208301602085012081835280955050505050506000915090508054600181600116156101000203166002900480601f0160208091040260200160405190810160405280929190818152602001828054600181600116156101000203166002900480156115aa5780601f1061157f576101008083540402835291602001916115aa565b820191906000526020600020905b81548152906001019060200180831161158d57829003601f168201915b505050505081565b828054600181600116156101000203166002900490600052602060002090601f016020900481019282601f106115f357805160ff1916838001178555611621565b82800160010185558215611621579182015b82811115611620578251825591602001919060010190611605565b5b50905061162e9190611632565b5090565b61165491905b80821115611650576000816000905550600101611638565b5090565b9056fea265627a7a7231582056f242141e1cf88418b3237158a496ceb8f2d17b5e0dc8351fe46ef89b8a8ca564736f6c63430005100032",
  "source": "pragma solidity ^0.5.16;\r\n//pragma experimental ABIEncoderV2;\r\n\r\ncontract ePrescription {\r\n    \r\n    mapping(string=>string) public vets; //vetID->vetHash on IPFS, Vet details can be extracted from IPFS\r\n    mapping(string=>string) public trustW; //farmer ID => hash of trust details on IPFS\r\n    mapping(string=>string) public presDetails; // serial no => hash of prescription details on IPFS\r\n\r\n    event eventCreatePrescription(\r\n        string serialNo,\r\n        string farmerID,\r\n        string vetID,\r\n        string presHash,\r\n        uint256 timestamp\r\n    );\r\n\r\n    event eventRegisterVet(\r\n        string vetID,\r\n        string vetDetailsHash,\r\n        uint256 timestamp\r\n    );\r\n\r\n    event eventCreateTrustW(\r\n        string farmerID,\r\n        string hash,\r\n        uint256 timestamp\r\n    );\r\n\r\n   \r\n\r\n//----trust calculations for farmers\r\n\r\n    //adding hash of trustworthiness details (farmeID:Hash of trustworthiness) to blockchain\r\n    function addingTrustW(string memory farmerID, string memory hash)public{\r\n        trustW[farmerID]=hash;\r\n        emit eventCreateTrustW(farmerID, hash, block.timestamp);\r\n    }\r\n\r\n\r\n\r\n//---adding and viewing vet practioners\r\n\r\n    //adding registered vets to the map. Vet details are on IPFS\r\n    function addRegisteredVet(string memory _vetID, string memory _vetHash) public {\r\n        vets[_vetID]=_vetHash;\r\n        emit eventRegisterVet(_vetID,_vetHash,block.timestamp);\r\n    }\r\n\r\n    //get hash of vet details - vet details can be found in IPFS using the hash\r\n    function getRegisteredVet(string memory _vid) public view returns(string memory){\r\n        return vets[_vid];\r\n    }\r\n\r\n\r\n//---adding/viewing prescriptions\r\n\r\n    //adding prescriptions to a map\r\n    function addPrescription(string memory _serialNo, string memory _farmerID, string memory _vetID, string memory _presHash)public{ \r\n        presDetails[_serialNo]=_presHash;\r\n        emit eventCreatePrescription(_serialNo, _farmerID, _vetID, _presHash,block.timestamp);\r\n    }\r\n\r\n    //get prescriptions from the map based on the serial no\r\n    function getPrescription(string memory _serialNo)public view returns(string memory){\r\n        return presDetails[_serialNo];\r\n    }\r\n\r\n\r\n\r\n\r\n    //TODO: 1. find all prescriptions issued by a vet\r\n    //TODO: 2. update prescription when buying medicine (3.2 animal remedy dispensed). Records will be added only to this section of the created prescription. \r\n    //TODO: 3. update prescription when administering medicine (3.3 animal remedy administered). Records will be added only to this section of the created prescription.  \r\n\r\n}",
  "sourcePath": "C:/Users/Kosala/EthereumTutorial/ePrescription/contracts/ePrescription.sol",
  "compiler": {
    "name": "solc",
    "version": "0.5.16+commit.9c3226ce.Emscripten.clang"
  },
  "schemaVersion": "3.3.4",
  "updatedAt": "2021-03-15T17:49:56.263Z",
  "devdoc": {
    "methods": {}
  },
  "userdoc": {
    "methods": {}
  }
}